:020000040800F2
:1000000060040020A9010008630B00085F0B0008D2
:10001000610B0008E9020008E10C00080000000084
:10002000000000000000000000000000870B000836
:10003000EB02000800000000850B0008890B000897
:10004000C3010008C3010008C3010008C301000880
:10005000C3010008C3010008ED020008C301000845
:10006000C3010008C3010008C3010008C301000860
:10007000C3010008C3010008C3010008C301000850
:10008000C3010008C3010008C3010008000000000C
:10009000000000000000000000000000C301000894
:1000A000C3010008C3010008C3010008C301000820
:1000B000610C0008C3010008C3010008C301000867
:1000C000C3010008C3010008C3010008C301000800
:1000D000C3010008C3010008C301000800000000BC
:1000E00019030008C3010008C30100080000000054
:1000F000000000000000000000000000C301000834
:1001000000000000C3010008C3010008C30100088B
:1001100000000000000000000000000000000000DF
:10012000C3010008C3010008C3010008C30100089F
:10013000C3010008000000000000000000000000F3
:10014000000000000000000000000000C3010008E3
:10015000C3010008C3010008C3010008C30100086F
:10016000C3010008C30100080000000000000000F7
:10017000000000000000000000000000000000007F
:1001800000000000C30100080000000000000000A3
:10019000C3010008DFF80CD000F068F80048004701
:1001A0004D0D0008600400200648804706480047BF
:1001B000FEE7FEE7FEE7FEE7FEE7FEE7FEE7FEE717
:1001C000FEE7FEE70D0C0008950100082DE9F05F41
:1001D0000546002092469B468846064681464024B6
:1001E0001BE0284641464746224600F02FF853467A
:1001F0005A46C01A914110D311461846224600F0C3
:1002000016F82D1A67EB01084F46224601200021FF
:1002100000F00DF817EB00094E41201EA4F1010477
:10022000DFDC484631462A464346BDE8F09F202A97
:1002300004DB203A00FA02F1002070479140C2F13D
:10024000200320FA03F3194390407047202A04DB6F
:10025000203A21FA02F00021704721FA02F3D0403F
:10026000C2F120029140084319467047064C074DE1
:1002700006E0E06840F0010394E807009847103476
:10028000AC42F6D3FFF78AFF440E0008640E000864
:100290000F4810B5026886B0002142F001020260EA
:1002A00000680C4C00F00100059020200090012017
:1002B000CDE90101022003906946204600F046F88E
:1002C00000222021204600F009F906B010BD0000F0
:1002D000303802400000024001222021014800F095
:1002E000FDB8000000000240FEE7704707480168C3
:1002F000C9070AD0016841F00101016004490020EA
:10030000087004490888401C08807047143C01406C
:100310000E000020120000200748016889040AD559
:10032000016841F40051016004490020087004494B
:100330000888401C08807047143C01400D000020D4
:10034000100000200020FFF7C7FFFEE72DE9F84F5F
:10035000DFF860B100224FF001084FF0030A4FF0C0
:100360000F090BF1040E00BF0B6808FA02F42340DA
:10037000A3426ED14D68022D01D0122D0ED1D508A9
:1003800000EB850CDCF820505607F70E09FA07F64B
:10039000B5430E69BE402E43CCF820600668550078
:1003A0000F790AFA05FC07F0030726EA0C06AF40AE
:1003B000374307604E68012E05D0022E03D0112E60
:1003C00001D0122E0ED18668CF6826EA0C06AF4007
:1003D000374387604668A6430C79C4F30014944001
:1003E00034434460C6688C6826EA0C06AC4034434B
:1003F000C4604C68E40056D52F4C256845F4804510
:100400002560246822F0030504F4804400942B4CFA
:100410002E19D6F8084895072F0F09FA07F5AC43AF
:10042000274DA84201D1002515E0264DA84201D153
:10043000012510E0244DA84201D102250BE0234DF7
:10044000A84201D1032506E0214DA84202D104258E
:1004500001E028E00725BD402543C6F80858DBF831
:1004600000405D464E689C43F60300D51C432C605B
:10047000DEF8004075464E689C43B60300D51C4329
:100480002C600C4D08352C684E689C43F60200D554
:100490001C432C60074D0C352C684E689C43B602FB
:1004A00000D51C432C60521C102AFFF45DAFBDE840
:1004B000F88F0000003C0140443802400030014009
:1004C000000002400004024000080240000C02400C
:1004D0000010024042694A40426170470AB181619E
:1004E00070470904FBE7000001488068704700007E
:1004F000000000200B4810B5016841F40071016054
:10050000016841F480610160016841F4807101601B
:10051000032000F04BF80F2000F006F800F024F85C
:10052000002010BD003C024070B50D4D04464FF454
:100530007A712878B1FBF0F00A490968B1FBF0F054
:1005400000F09CFA48B9102C07D200222146501E18
:1005500000F00CF800206C6070BD012070BD000040
:10056000000000201800002070470000F0B40E4B7F
:100570001B680C46C3F30223C3F10705042D00D901
:100580000425191D072901D2002300E0DB1E0126E6
:1005900006FA05F1491E214099409E40761E1640FC
:1005A0003143F0BC00F0DEBA0CED00E0064900F08B
:1005B000070208684FF6FF03184040EA0220034A8A
:1005C00010430860704700000CED00E00000FA05E1
:1005D0002DE9F0470E46050065D0DFF81481D8F804
:1005E0000000F7B200F00F00B04207D288F80070A8
:1005F000D8F8000000F00F00B04254D128683D4CFC
:10060000810712D5400703D5206840F4E0502060F0
:100610002878000703D5206840F4604020602068F7
:10062000A96820F0F000084320602878C0072DD08A
:10063000304968680839012812D0022813D00328ED
:1006400011D00968890700292DDA216821F00301FA
:1006500001432160FFF748FF814641F2883A0EE0EE
:1006600009688903EFE709688901ECE7FFF73CFFB8
:10067000A0EB0901514502D90320BDE8F0872068AD
:10068000696800F00C00B0EB810FEFD1D8F80010D2
:10069000404601F00F01B14207D90770006800F031
:1006A0000F00B04201D00120E7E72878400705D5C8
:1006B0002068E96820F4E0500843206028780007AB
:1006C00006D52068296920F4604040EAC100206016
:1006D00000F016F82168084AC1F30311515CC840C4
:1006E000064908600F20FFF71FFF0020C5E7000044
:1006F000003C024008380240340E00081800002078
:10070000154810B5006810F00C02144813D04110C1
:10071000042A0FD0082A0ED10F4C241F2268236808
:1007200002F03F025B0207D52068C0F38810A0FBEF
:10073000010106E0084610BD2168C1F38811A1FB44
:1007400000010023FFF742FD2168C1F30141491C6C
:100750004900B0FBF1F010BD083802400024F4005D
:100760002DE9F84F050076D02878DFF8F8B2BE4CB6
:10077000C00749D0DBF800105846C1F381010129B8
:1007800008D00068C0F3810002280AD1201D00684B
:10079000400206D52068800336D568680028E2D07C
:1007A00032E06868B0F5803F10D0B0F5A02F206827
:1007B00010D020F480302060206820F48020206059
:1007C0006868A0B1FFF790FE06460CE0206840F490
:1007D0008030F4E740F480202060F7E7FFF784FEE4
:1007E000801B642873D820688003F7D50CE0FFF7DE
:1007F0007BFE064605E000BFFFF776FE801B6428FF
:10080000F0D820688003F7D42878DFF8608280076A
:100810004FF000093ED5DBF80010584611F00C0FE0
:1008200009D00068C0F3810002280BD18D48001F59
:100830000068400206D42068800715D5E8680128C2
:1008400009D111E0E868B8B10120C8F80000FFF74D
:100850004BFE064605E002E1FFF746FE801B02283C
:10086000C0D820688007F7D52068296920F0F800F3
:1008700040EAC10020600DE0C8F80090FFF734FEA8
:10088000064604E0FFF730FE801B02281FD82068D0
:100890008007F7D42878000722D5724E744869691A
:1008A0006C3671B101210160FFF71EFE074604E0BE
:1008B000FFF71AFEC01B022809D830688007F7D559
:1008C0000EE0C0F80090FFF70FFE074605E083E05A
:1008D000FFF70AFEC01B02287ED830688007F7D4D5
:1008E0002878400768D5DFF87CA100270AF1380A8C
:1008F000DAF80000C0000BD4DAF8001041F08051A3
:10090000CAF80010DAF80000012700F080500090CB
:10091000584E3068C00510D4306840F480703060A4
:10092000FFF7E2FD009005E0FFF7DEFD0099401AB9
:10093000022851D83068C005F6D54A4EA8686836F6
:1009400001280FD00528306810D020F00100306059
:10095000306820F004003060A868B8B1FFF7C4FD2B
:1009600000900FE0306840F00100F4E740F0040030
:100970003060F7E7FFF7B8FD0099411A41F288307F
:10098000814264D830688007F4D50EE0FFF7ACFDF3
:10099000009007E0FFF7A8FD0099411A41F2883066
:1009A000814254D830688007F4D42FB1DAF80010AF
:1009B00021F08051CAF80010A869C0B3DBF800101C
:1009C000C1F3810102294AD00228484607D0C8F85D
:1009D0006000FFF789FD00E039E005463AE0474650
:1009E000C8F86000FFF780FD064604E0FFF77CFDD5
:1009F000801B02282BD820688001F7D4D5E9070195
:100A00000843A96A1C4A490802EB01416A6A41EAA3
:100A10008211084395F82C1040EA01611148001F2B
:100A2000016001203866FFF75FFD054605E014E030
:100A3000FFF75AFD401B022809D820688001F7D52E
:100A40000BE000BFFFF750FD401B022802D9032036
:100A5000BDE8F88F20688001F4D40020F8E7012079
:100A6000F6E7000008380240003802400000474224
:100A7000800E4742007000400000FFFF10B5401E8E
:100A8000B0F1807F01D3012010BD4FF0E024606100
:100A90000F21601700F066F80020A0610720206198
:100AA000002010BD2DE9F843044690F839001F4698
:100AB00016460D46202850D1A5B19EB194F83800B5
:100AC00001284AD0012084F838004FF00008C4F80B
:100AD0003C80212084F83900FFF706FDA68481467A
:100AE000E68426E00120BDE8F883E08C401EE08427
:100AF000A0684B46B0F5805F4FF000024FF08001D8
:100B00002046009703D000F0B9F8E8B90DE000F0F6
:100B1000B5F8C8B928882168C0F308004860206982
:100B200008B16D1C05E0AD1C03E0216815F8010B50
:100B30004860E08C0028D8D14B4600224021204656
:100B4000009700F09BF808B10320CCE7202084F840
:100B5000390084F838800020C5E70220C3E7FEE7AB
:100B6000FEE770470907090E002806DA00F00F00BB
:100B700000F1E02080F8141D704700F1E02080F8BB
:100B800000147047704770477047000030B51D482B
:100B900093B00024016841F080510160006800F0CA
:100BA000805011901848016821F4404141F40041FF
:100BB00001600068022500F440401190012003907C
:100BC0001020009506950490CDE907404FF4A870D9
:100BD000099004200A9007200B906846FFF7C0FD9B
:100BE00060B90F20CDE90C05E802CDE90E400221E5
:100BF0000CA81094FFF7ECFC002801D0FFF7A2FB33
:100C000013B030BD40380240007000401048016809
:100C100041F4700101600F48016841F00101016079
:100C20000C4A00210832116002680B4B1A40026026
:100C3000031D0A4A1A60026822F4802202600548F5
:100C40000C30016002495806803908607047000086
:100C500088ED00E000380240FFFFF6FE103000246F
:100C60004FF08040016921F00101016102490888CB
:100C7000401C088070470000140000202DE9F0415E
:100C8000984617460E460446069D1DE0681C1BD07C
:100C90002DB1FFF729FCA0EB0800A84214D9206869
:100CA000C16821F4D071C1602068416921F001015F
:100CB0004161202084F8390084F83A00002084F84B
:100CC00038000320BDE8F0812068006836EA0000A3
:100CD00004D00020B842D9D00020F3E70120F9E782
:100CE000FEE70000014A024900F013B8350D000884
:100CF0001C00002002E008C8121F08C1002AFAD117
:100D000070477047002001E001C1121F002AFBD18B
:100D100070472DE9F04116460F460446002503E0D2
:100D20003946B047641C6D1C20780028F8D128464D
:100D3000BDE8F08113B54FF6FF7301226946024802
:100D4000FFF7B0FE00981CBD2000002010B516A0D3
:100D5000FFF7C8FF194C207830B1012810D00228C5
:100D600014D003281DD115E015A0FFF7BBFFFFF736
:100D7000C1FBFFF70BFF0020FFF78AFA032003E017
:100D800016A0FFF7AFFF022020700AE01AA0FFF7BD
:100D9000A9FF06E01FA0FFF7A5FF20212448FFF7C9
:100DA00099FB002010BD0000456E746572696E6786
:100DB000206D61696E2E2E2E0A0A00000C000020A4
:100DC000546F702073746174653A53544154455F95
:100DD000544F505F494E495400000000546F70203A
:100DE00073746174653A53544154455F544F505F76
:100DF0005550444154450000546F70207374617421
:100E0000653A53544154455F544F505F52455345E2
:100E100054000000546F702073746174653A535429
:100E20004154455F544F505F4C4F4F5000000000FD
:100E30000000024000000000000000000102030466
:100E400006070809640E00080000002020000000CA
:100E5000F40C0008840E000820000020400400006C
:100E6000040D000801000000100000000000000058
:100E70000000000000000000000000000024F4005A
:040E8000000000006E
:040000050800019559
:00000001FF
