:020000040800F2
:1000000088040020A9010008D50E0008D10E0008C0
:10001000D30E0008050300080312000800000000CA
:10002000000000000000000000000000F90E0008C1
:100030000703000800000000F70E0008FB0E000890
:10004000C3010008C3010008C3010008C301000880
:10005000C3010008C3010008C3010008C301000870
:10006000C3010008C3010008C3010008C301000860
:10007000C3010008C3010008C3010008C301000850
:10008000C3010008C3010008C3010008000000000C
:10009000000000000000000000000000C301000894
:1000A000C3010008C3010008C3010008C301000820
:1000B000C3010008C3010008D50F0008C3010008F0
:1000C000C3010008C3010008C3010008C301000800
:1000D000C3010008C3010008C301000800000000BC
:1000E000C3010008C3010008C301000800000000AC
:1000F000000000000000000000000000C301000834
:1001000000000000C3010008C3010008C30100088B
:1001100000000000000000000000000000000000DF
:10012000C3010008C3010008C3010008C30100089F
:10013000C3010008000000000000000000000000F3
:10014000000000000000000000000000C3010008E3
:10015000C3010008C3010008C3010008C30100086F
:10016000C3010008C30100080000000000000000F7
:10017000000000000000000000000000000000007F
:1001800000000000C30100080000000000000000A3
:10019000C3010008DFF80CD000F068F80048004701
:1001A00025120008880400200648804706480047BA
:1001B000FEE7FEE7FEE7FEE7FEE7FEE7FEE7FEE717
:1001C000FEE7FEE7810F0008950100082DE9F05FCA
:1001D0000546002092469B468846064681464024B6
:1001E0001BE0284641464746224600F02FF853467A
:1001F0005A46C01A914110D311461846224600F0C3
:1002000016F82D1A67EB01084F46224601200021FF
:1002100000F00DF817EB00094E41201EA4F1010477
:10022000DFDC484631462A464346BDE8F09F202A97
:1002300004DB203A00FA02F1002070479140C2F13D
:10024000200320FA03F3194390407047202A04DB6F
:10025000203A21FA02F00021704721FA02F3D0403F
:10026000C2F120029140084319467047064C074DE1
:1002700006E0E06840F0010394E807009847103476
:10028000AC42F6D3FFF78AFFCC120008EC1200084C
:1002900070B50446114886B00021026842F00102A0
:1002A000026000680E4E00F00100059036F8140060
:1002B00000900120CDE901010A4D0220039055F87C
:1002C0002400694600F024F836F8141055F824008C
:1002D000002200F0E1F806B070BD000030380240A6
:1002E000B6120008000000200449054A31F8101039
:1002F00052F82000012200F0CFB80000B61200082A
:1003000000000020FEE770470020FFF7EDFFFEE74A
:100310002DE9F84FDFF860B100224FF001084FF0EF
:10032000030A4FF00F090BF1040E00BF0B6808FA27
:1003300002F42340A3426ED14D68022D01D0122D4C
:100340000ED1D50800EB850CDCF820505607F70ECF
:1003500009FA07F6B5430E69BE402E43CCF820607B
:10036000066855000F790AFA05FC07F0030726EA2C
:100370000C06AF40374307604E68012E05D0022EB1
:1003800003D0112E01D0122E0ED18668CF6826EA36
:100390000C06AF40374387604668A6430C79C4F328
:1003A0000014944034434460C6688C6826EA0C0606
:1003B000AC403443C4604C68E40056D52F4C2568EB
:1003C00045F480452560246822F0030504F4804448
:1003D00000942B4C2E19D6F8084895072F0F09FAD0
:1003E00007F5AC43274DA84201D1002515E0264D65
:1003F000A84201D1012510E0244DA84201D10225D7
:100400000BE0234DA84201D1032506E0214DA8426F
:1004100002D1042501E028E00725BD402543C6F8A8
:100420000858DBF800405D464E689C43F60300D553
:100430001C432C60DEF8004075464E689C43B603B2
:1004400000D51C432C600C4D08352C684E689C432D
:10045000F60200D51C432C60074D0C352C684E6805
:100460009C43B60200D51C432C60521C102AFFF49A
:100470005DAFBDE8F88F0000003C01404438024009
:100480000030014000000240000402400008024029
:10049000000C0240001002400AB18161704709045B
:1004A000FBE7000001488068704700000C00002056
:1004B0000248816802781144816070470C00002076
:1004C0000B4810B5016841F400710160016841F406
:1004D00080610160016841F480710160032000F0D7
:1004E00055F80F2000F006F800F024F8002010BDA9
:1004F000003C024070B50D4D04464FF47A712878E7
:10050000B1FBF0F00A490968B1FBF0F000F0ACFA79
:1005100048B9102C07D200222146501E00F016F8D0
:1005200000206C6070BD012070BD00000C00002038
:1005300024000020704700F01F0201219140400973
:10054000800000F1E020C0F800117047F0B40E4BBD
:100550001B680C46C3F30223C3F10705042D00D921
:100560000425191D072901D2002300E0DB1E012606
:1005700006FA05F1491E214099409E40761E16401C
:100580003143F0BC00F0A7BC0CED00E0064900F0E0
:10059000070208684FF6FF03184040EA0220034AAA
:1005A00010430860704700000CED00E00000FA0501
:1005B0002DE9F0470E46050065D0DFF81481D8F824
:1005C0000000F7B200F00F00B04207D288F80070C8
:1005D000D8F8000000F00F00B04254D128683D4C1C
:1005E000810712D5400703D5206840F4E050206011
:1005F0002878000703D5206840F460402060206818
:10060000A96820F0F000084320602878C0072DD0AA
:10061000304968680839012812D0022813D003280D
:1006200011D00968890700292DDA216821F003011A
:1006300001432160FFF736FF814641F2883A0EE020
:1006400009688903EFE709688901ECE7FFF72AFFEA
:10065000A0EB0901514502D90320BDE8F0872068CD
:10066000696800F00C00B0EB810FEFD1D8F80010F2
:10067000404601F00F01B14207D90770006800F051
:100680000F00B04201D00120E7E72878400705D5E8
:100690002068E96820F4E0500843206028780007CB
:1006A00006D52068296920F4604040EAC100206036
:1006B00000F01CF82168084AC1F30311515CC840DE
:1006C000064908600F20FFF715FF0020C5E700006E
:1006D000003C024008380240BA1200082400002002
:1006E000014800687047000024000020154810B53C
:1006F000006810F00C02144813D04110042A0FD0E7
:10070000082A0ED10F4C241F2268236802F03F02F2
:100710005B0207D52068C0F38810A0FB010106E04A
:10072000084610BD2168C1F38811A1FB0001002318
:10073000FFF74CFD2168C1F30141491C4900B0FBA2
:10074000F1F010BD083802400024F4002DE9F84F04
:10075000050076D02878DFF8F8B2BE4CC00749D043
:10076000DBF800105846C1F38101012908D0006868
:10077000C0F3810002280AD1201D0068400206D57E
:100780002068800336D568680028E2D032E06868C7
:10079000B0F5803F10D0B0F5A02F206810D020F425
:1007A00080302060206820F4802020606868A0B13C
:1007B000FFF778FE06460CE0206840F48030F4E74E
:1007C00040F480202060F7E7FFF76CFE801B642870
:1007D00073D820688003F7D50CE0FFF763FE064668
:1007E00005E000BFFFF75EFE801B6428F0D820689C
:1007F0008003F7D42878DFF8608280074FF0000983
:100800003ED5DBF80010584611F00C0F09D00068F7
:10081000C0F3810002280BD18D48001F0068400200
:1008200006D42068800715D5E868012809D111E0B1
:10083000E868B8B10120C8F80000FFF733FE0646AB
:1008400005E002E1FFF72EFE801B0228C0D82068D9
:100850008007F7D52068296920F0F80040EAC10038
:1008600020600DE0C8F80090FFF71CFE064604E08B
:10087000FFF718FE801B02281FD820688007F7D4D6
:100880002878000722D5724E744869696C3671B1B8
:1008900001210160FFF706FE074604E0FFF702FEB4
:1008A000C01B022809D830688007F7D50EE0C0F8D1
:1008B0000090FFF7F7FD074605E083E0FFF7F2FD44
:1008C000C01B02287ED830688007F7D428784007FC
:1008D00068D5DFF87CA100270AF1380ADAF80000B1
:1008E000C0000BD4DAF8001041F08051CAF80010B3
:1008F000DAF80000012700F080500090584E306870
:10090000C00510D4306840F480703060FFF7CAFD35
:10091000009005E0FFF7C6FD0099401A022851D863
:100920003068C005F6D54A4EA868683601280FD051
:100930000528306810D020F001003060306820F0C9
:1009400004003060A868B8B1FFF7ACFD00900FE07C
:10095000306840F00100F4E740F004003060F7E751
:10096000FFF7A0FD0099411A41F28830814264D816
:1009700030688007F4D50EE0FFF794FD009007E0A3
:10098000FFF790FD0099411A41F28830814254D816
:1009900030688007F4D42FB1DAF8001021F08051CC
:1009A000CAF80010A869C0B3DBF80010C1F38101D8
:1009B00002294AD00228484607D0C8F86000FFF74D
:1009C00071FD00E039E005463AE04746C8F86000AE
:1009D000FFF768FD064604E0FFF764FD801B022870
:1009E0002BD820688001F7D4D5E907010843A96A0C
:1009F0001C4A490802EB01416A6A41EA8211084334
:100A000095F82C1040EA01611148001F0160012097
:100A10003866FFF747FD054605E014E0FFF742FDA5
:100A2000401B022809D820688001F7D50BE000BFE1
:100A3000FFF738FD401B022802D90320BDE8F88FDC
:100A400020688001F4D40020F8E70120F6E70000D8
:100A5000083802400038024000004742800E4742FA
:100A6000007000400000FFFF10B5401EB0F1807F15
:100A700001D3012010BD4FF0E02460610F21601709
:100A800000F029FA0020A06107202061002010BD9D
:100A90007047704770B50546007E02281AD10421C0
:100AA000284600F0D1F90C4C2060206878B1002174
:100AB000284600F0C9F9642148432168B0FBF1F0F1
:100AC0006060FFF70DFE2168B0FBF1F001E000204F
:100AD0006060A06070BD0000180000202DE9F041AA
:100AE000044690F838000D4601283DD0012684F8D0
:100AF0003860022084F83900AAB3042A46D020685E
:100B0000082A55D0D5E90027E968036A23F4805301
:100B10000362D0F81CC0036A2CF4407C4CEA07271F
:100B20004FF6FF7C27F470470CEA013139434FF44C
:100B3000204723F4204307EA02321A43C1610262CC
:100B40002068C16921F44061C1612068C169AA6857
:100B500041EA0221C0F81C1084F83960002084F8B2
:100B60003800BDE8F08101E00220FAE7D5E9001283
:100B7000EB68206800F0E0FA2068816921F00C0140
:100B8000816120688169AA6811430FE0D5E90012EC
:100B9000EB68206800F01AFB2068816921F440614D
:100BA000816120688169AA6841EA02218161D3E7F5
:100BB000D5E9002C2F7B016A21F480710162C169A3
:100BC000036A21F0030141EA0C0121F0F00C39071E
:100BD0004FF420674CEA116123F4206307EA0222F4
:100BE0001A43C16102622068C16921F00C01C16130
:100BF0002068C169AA681143ACE710B5040003D0AE
:100C000094F8390010B107E0012010BD002084F8ED
:100C10003800204600F00CF8022084F83900211D2D
:100C2000206800F0DDF9012084F83900002010BDB3
:100C3000154800B5016887B041F004010160006803
:100C400000F00400059010481038016841F00201DE
:100C500001600068012100F00200059080200090F2
:100C60000220CDE901010321CDE9031069460748BF
:100C7000FFF74EFB012200211E20FFF767FC1E201C
:100C8000FFF759FC07B000BD4038024000040240A5
:100C900010B50268044631B1042908D0082915D0DE
:100CA0000C2908D116E0D06840F0020002E0D068BC
:100CB00040F00400D0600122206800F0D9F92068DB
:100CC000016841F001010160002010BDD06840F0D2
:100CD0000800EFE7D06840F01000EBE770B504467D
:100CE000006801694FF00005C943890715D4C16840
:100CF000C943890711D4E91E0161012020762068CB
:100D000080698007204602D0FFF7C4FE04E000F0AF
:100D100098F8204600F096F8257620680169C943C6
:100D2000490717D4C168C943490713D46FF00401B8
:100D30000161022020762068806910F4407F2046FF
:100D400002D0FFF7A7FE04E000F07BF8204600F099
:100D500079F8257620680169C943090716D4C16866
:100D6000C943090712D46FF00801016104202076FD
:100D70002068C0698007204602D0FFF78BFE04E0A0
:100D800000F05FF8204600F05DF8257620680169E4
:100D9000C943C90617D4C168C943C90613D46FF043
:100DA00010010161082020762068C06910F4407F9E
:100DB000204602D0FFF76EFE04E000F042F8204625
:100DC00000F040F8257620680169C943C90708D1B9
:100DD000C168C943C90704D1891E0161204600F0DA
:100DE00032F820680169C943090609D4C168C943BA
:100DF000090605D46FF0800101612046FFF748FE27
:100E000020680169C943490609D4C168C943490634
:100E100005D46FF040010161204600F058F82068C9
:100E20000169C94389060BD4C168C943890607D43F
:100E30006FF0200101612046BDE87040FFF729BE38
:100E400070BD70477047704790F838300022012B12
:100E50000AD0012380F8383041B1042909D008298B
:100E60000AD00C290DD10AE00220704701684A6BB4
:100E700007E001688A6B04E00168CA6B01E0016861
:100E80000A6C002180F838101046704770B504468F
:100E900090F83800012818D0012584F83850022035
:100EA00084F83900204600F0F8F82068C16821F085
:100EB0004001C1602068C16821F48041C16084F8AC
:100EC0003950002084F8380070BD022070BD704792
:100ED000FEE7FEE770470907090E002806DA00F072
:100EE0000F0000F1E02080F8141D704700F1E020B1
:100EF00080F80014704770477047FFF7D9BA0000B8
:100F000030B51D4893B00024016841F08051016064
:100F1000006800F0805011901848016821F44041A9
:100F200041F4004101600068022500F44040119046
:100F3000012003901020009506950490CDE907400C
:100F40004FF4A870099004200A9007200B9068467F
:100F5000FFF7FCFB60B90F20CDE90C05E802CDE9F5
:100F60000E4002210CA81094FFF722FB002801D0AC
:100F7000FFF7CAF913B030BD40380240007000409E
:100F80001048016841F4700101600F48016841F0A8
:100F9000010101600C4A00210832116002680B4B0C
:100FA0001A400260031D0A4A1A60026822F4802275
:100FB000026005480C30016002495806803908601B
:100FC0007047000088ED00E000380240FFFFF6FEA9
:100FD000103000240148FFF781BE000028000020E7
:100FE000F0B502681B4B1C4C9F031C4D1C4E9842D5
:100FF00007D0B84205D0A04203D0A84201D0B042E9
:1010000004D122F0700C4A6842EA0C02984210D0D7
:10101000B8420ED0A0420CD0A8420AD0B04208D0AC
:10102000104CA04205D0104CA04202D00F4CA04260
:1010300003D122F44074CA68224302608A68C26203
:101040000A688262984201D1096901630121416104
:10105000F0BD000000000140000400400008004016
:10106000000C0040004001400044014000480140A5
:1010700010B50123046A8B409C430462036A8A40D2
:101080001343036210BD10B5846842EA032224F4BE
:101090007F440A432243826010BD30B403689A68DB
:1010A00022F070044A68224322F007040A682243AF
:1010B0009A604A6812F00F0F1FD11211082A1CD231
:1010C000DFE802F01B1B1B1B0B1D23040B69D1E97E
:1010D0000221006830BCFFF7D6BF0268136A146AA9
:1010E00024F00104146202689469096924F0F00490
:1010F00044EA011191610068036230BC70470A69DB
:101100008968006830BC00F006B80A698968006820
:1011100030BC00F049B810B5036A046A24F0010439
:101120000462846924F0F00444EA021423F00A0201
:101130000A438461026210BD70B5046A24F00104A0
:1011400004628469056A134EB0420ED0B0F1804F3C
:101150000BD0114EB04208D0104EB04205D0104E08
:10116000B04202D00F4EB04203D124F00304144326
:1011700003E024F0030242F001041A0724F0F00413
:1011800044EA126225F00A0301F00A011943826160
:10119000016270BD000001400004004000080040F2
:1011A000000C00400040014010B5036A23F010031A
:1011B00003628369046A23F4704343EA023224F031
:1011C000A00343EA01118261016210BD30B5046AD7
:1011D00024F0100404628469056A24F4407444EA2B
:1011E000022222F470444FF6FF7202EA03322243D5
:1011F000A02425F0A00304EA0111194382610162D1
:1012000030BDFEE702E008C8121F08C1002AFAD16B
:1012100070477047002001E001C1121F002AFBD176
:1012200070470000FFF74CF9E0BBFFF769FE0020B4
:10123000FFF72EF81E481D49002401604FF6FF718C
:101240004460C0E903148460FFF7D7FC50BB184D1D
:1012500002203C350022AC602860EC6068602946C2
:101260001348FFF73BFCE8B90120C5E90040042220
:1012700029460F48FFF732FCA0B905F11000042100
:1012800001606021416001464C38FFF7FFFD48B91D
:1012900004210748FFF7FCFC20B900210448FFF7B0
:1012A000F7FC08B1FFF730F8FEE700000008004047
:1012B000280000202800200000200000000000007E
:1012C000000001020304060708090000EC120008F0
:1012D0000000002028000000041200081413000879
:1012E00028000020600400001412000800000240E2
:1012F00000080240E80300000100000010000000A8
:1013000000000000000000000000000000000000DD
:041310000024F400C1
:040000050800019559
:00000001FF
